:100000000EC028C07BC0FDC0F2C0B3C023C022C058
:1000100021C071C1CCC0D5C01DC01CC01BC01124E3
:100020001FBECFE5D1E0DEBFCDBF10E0A0E6B0E05F
:10003000E6E7F3E002C005900D92A439B107D9F7C5
:1000400010E0A4E9B0E001C01D92A43FB107E1F7C0
:1000500079D08FC1D5CF089583E087BB80E388BB7B
:10006000089508958FB5482F50E08091B800909181
:10007000B9009A01281B390BE0919600F0E0EC578B
:10008000FF4FA081B0E0FD01EE0FFF1FE855FF4FCD
:100090000190F081E02D8081A652BF4FAC919BE092
:1000A000283B390710F01092960090E002C0959519
:1000B0008795AA95E2F780FF04C082E080939900BB
:1000C00010C080919600E82FF0E0EE0FFF1FEC5972
:1000D000FF4F3183208391E0909399008F5F80934D
:1000E000960080919600863020F010929600109233
:1000F00099005093B9004093B80008951F920F9251
:100100000FB60F9211248F939F93EF93FF938091DB
:1001100097009FB5E82FF0E0EE0FFF1FE056FF4F6E
:10012000908311828F5F80939700843010F010923B
:100130009700FF91EF919F918F910F900FBE0F90BD
:100140001F90189583E087BB80E388BB06D0789426
:10015000FFCF089508950895089583EF8ABD12BED4
:1001600080E489BD88BD89B7826089BF83E083BF91
:1001700008951F920F920FB60F9211248F938091C2
:100180009A008F5F80939A00813021F48AB58F7036
:100190008ABD07C08A3028F08AB5806F8ABD109268
:1001A0009A008F910F900FBE0F901F9018951F927D
:1001B0000F920FB60F9211240F900FBE0F901F9049
:1001C00018951F920F920FB60F9211240F900FBE29
:1001D0000F901F90189583EF8ABD12BE80E489BDF1
:1001E00088BD89B7826089BF83E083BF08951F926D
:1001F0000F920FB60F9211240F900FBE0F901F9009
:1002000018951F920F920FB60F9211242F933F93C0
:100210008F939F93AF93BF93EF93FF93A09194001D
:10022000B0E0FD01EE0FFF1FE653FF4F0190F0819C
:10023000E02DAE53BF4FAC9180919500823060F1BC
:10024000823009F046C0808121E030E002C0220FF8
:10025000331FAA95E2F720952823208380919400EC
:100260008F5F8093940020919B0030919C00873099
:1002700048F01092940010929500E0916200F09185
:10028000630007C081E080939500E0916000F091E9
:100290006100E20FF31F1DC0208181E090E002C0E9
:1002A000880F991FAA95E2F7282B2083E0919400EC
:1002B000F0E0EE0FFF1FEC58FF4F0190F081E02DB2
:1002C00080919B0090919C00E80FF91F82E0809341
:1002D0009500F0939C00E0939B00EEBDFF91EF91A1
:1002E000BF91AF919F918F913F912F910F900FBE32
:1002F0000F901F9018951F920F920FB60F92112416
:100300005F936F937F938F939F93EF93FF93E0910E
:10031000D800F091D900608181E090E00090C900A0
:1003200002C0880F991F0A94E2F78095909570E0BB
:100330000ED08083FF91EF919F918F917F916F916C
:100340005F910F900FBE0F901F901895089555273D
:10035000002480FF02C0060E571F660F771F61152D
:10036000710521F096958795009799F7952F802D27
:060370000895F894FFCF90
:10037600F4011027E803E803E803E803E803E803C9
:10038600E803E803E803E803E803E803E803E8030F
:10039600E803E8030400030205010706000102035F
:0403A600040506073D
:00000001FF
